:1000000084C09EC029C29CC09BC09AC099C098C0A1
:1000100097C096C095C094C093C092C091C0090289
:100020002200010100801909040000010301010000
:10003000092101010001223F000705810308000A90
:100040001201100100000008C016DB2700010102A8
:1000500003010A0330003000300031002203500059
:1000600061007300730077006F0072004700650045
:100070006E0065007200610074006F0072001C0366
:1000800053006500630031002000530065006300E9
:100090007500720069007400790004030904050109
:1000A0000906A10175019508050719E029E7150062
:1000B00025018102950175088103950575010508E3
:1000C000190129059102950175039103950675089B
:1000D000150025650507190029658100C0204E65BA
:1000E000772070617373776F7264207361766564D3
:1000F0002E005374617274696E672067656E657255
:100100006174696F6E2E2E2E000011241FBECFE584
:10011000D2E0DEBFCDBF10E0A0E6B0E0E8EBFAE051
:1001200002C005900D92A436B107D9F720E0A4E6ED
:10013000B0E001C01D92A93CB207E1F73FD4BAC4B8
:100140005FCFCF93C62F20919E0024FF07C0209140
:100150009F0038E8232720939F0003C02AE52093BF
:100160009E00DC01E0EAF0E09C2F9E0F8D918193D0
:10017000892F8E1B1816D4F36C2F80EA90E055D18E
:10018000CC5FC0939E00CF910895CF93DF93609191
:10019000AF00635067FDC6C08091AC00CCE0D0E0FA
:1001A000C81BD109CD54DF4F8091AB008D3209F0CF
:1001B000A8C0683009F0B4C083EC809393008AE54E
:1001C00080936100109265008881807619F0CE01DD
:1001D00010D384C09A8110929C008981811106C03D
:1001E00010929D002CE930E082E074C0853019F453
:1001F0009093B0006CC0863009F053C08B81813081
:1002000041F480E490E09093AE008093AD0082E1F1
:1002100044C0823019F48EE190E01AC0833041F579
:10022000911108C08AE990E09093AE008093AD00F0
:1002300084E033C0913041F48EE790E09093AE00BB
:100240008093AD008CE129C0923041F48CE590E0C0
:100250009093AE008093AD0082E21FC09330E1F432
:1002600082E590E09093AE008093AD008AE015C0E7
:10027000813241F480E390E09093AE008093AD0032
:1002800089E00BC0823241F48EE990E09093AE0099
:100290008093AD008FE301C080E090E4909365000F
:1002A0001DC0883069F0893019F49093B2000FC0F6
:1002B0008A3049F08B3059F48BE480939F0007C05B
:1002C00022EB30E002C02CE930E081E003C02CE9F1
:1002D00030E080E03093AE002093AD008F3F39F4E2
:1002E000988197FD8E8190E89093650007C09F816B
:1002F000911104C09E81981708F4892F80936000A3
:100300000FC08091650087FF0BC0CE014CD38F3F9B
:1003100021F48EE18093610003C08111109260008E
:100320001092AF008091610084FF46C08091600010
:100330008F3F09F441C0C82F893008F0C8E08C1BFA
:10034000809360008091930098E8892780939300C0
:10035000CC2331F12091AD003091AE008091650049
:1003600086FF0BC0A4E9B0E0F9018C2F8A0F9491AD
:100370009D9331968A13FBCF09C0D901E4E9F0E0DF
:100380008C2F8E0F9D9191938E13FCCF8FEF8C0F3E
:1003900090E00196820F931F9093AE008093AD0082
:1003A0006C2F84E990E041D0CC5FCC3019F08FEF16
:1003B00080936000C093610084E196B3987131F43A
:1003C0008150D9F71092B0001092AA00C1E08111BB
:1003D000C0E0809164008C1729F0C11101C03BD2AC
:1003E000C0936400DF91CF910895AC9A8BB780627F
:1003F0008BBF8BE480939F008AE580939E000895D5
:10040000A82FB92F80E090E041E050EA609530E0FD
:1004100009C02D9182279795879510F084279527FD
:10042000305EC8F36F5FA8F30895EADF8D939D9364
:100430000895A6E088279927AA9569F00197E1F326
:10044000B399FCCFB39BFECF81E09927A6B3019669
:1004500011F0A871D9F70895CF93CFB7CF93C39573
:10046000B39BE9F7B39B0BC0B39B09C0B39B07C019
:10047000B39B05C0B39B03C0B39B01C0D5C00F9213
:10048000DF93C091AC00DD27CD54DF4F012EB39B2D
:1004900003C0DF910F90E6CF2F930F931F934F93DD
:1004A0002FEF4F6F06B303FB20F95F933F9350E0AC
:1004B0003BE065C016B30126502953FDC89556B3DD
:1004C000012703FB25F92F7306B3B1F0502710273E
:1004D00013FB26F906B22230F0F000C016B3012754
:1004E00003FB27F90126502906B22430E8F54F779F
:1004F000206816B30000F6CF50274F7D206206B269
:10050000102F000000C006B300265029102713FB4F
:1005100026F906B2E2CF4F7B06B3206400C0DACFE3
:1005200001265029187106B269F14E7F2160012F12
:1005300016B328C0002650294D7F06B22260102F26
:1005400029C0012650294B7F06B22460012F2DC0FF
:1005500016B301265029477F2860000006B22EC03E
:100560004F7E06B3206130C0422706B34993002670
:100570005029102706B24FEF13FB20F9297F16B33D
:1005800079F2187159F10126502906B2012703FBAF
:1005900021F9237F06B371F2002650293150D0F0A3
:1005A00006B2102713FB22F9277E16B351F201265B
:1005B0005029012703FB06B223F92F7C49F20000E2
:1005C00006B3102713FB24F90026502906B22F7911
:1005D00039F270CF10E21ABF002719C03B50319595
:1005E000C31BD04010E21ABF0881033C09F10B3451
:1005F000F9F02091AA001981110F1213EDCF4A8151
:10060000441F093651F10D3211F0013E29F70093D4
:10061000B1003F915F914F911F910F912F91DF9109
:100620000F90CAB7C5FD1BCFCF91CFBFCF91189503
:100630002091B100222369F31091AF00112379F5C5
:1006400034307AF13093AF002093AB001091AC00BE
:100650003BE0311B3093AC0024C00091AF0001306F
:10066000F4F40AE54F7049F43091610034FD1AC08A
:1006700000936100C3E9D0E019C030919E0034FDC1
:1006800011C000939E00CFE9D0E010C0052710E014
:1006900000C021C0052710E0C89508BB14C03AE58A
:1006A00001C032ED032EC0E0D0E032E017B3186194
:1006B000C39A08B317BB58E120E84FEF20FF052786
:1006C00008BB279517951C3F28F700004552B0F747
:1006D00020FF0527279508BB17951C3FB8F62991E1
:1006E0003A9561F7077E1091B000110F08BBC25018
:1006F000D04011F01093AA0010E21ABF086017B39F
:10070000177E402F477E54E05A95F1F708BB17BB80
:1007100048BB7FCF80918900882359F09091680071
:10072000903238F4E92FF0E0E759FF4F80818111D2
:1007300006C010928B0010928D0080E008952091E9
:100740006200222309F44AC09F5F9093680090EDF5
:10075000980F9A3040F410928B00803311F083513F
:100760001BC087E219C09FE9980F9A3138F4909125
:100770006300927090938B008D550EC09FEB980F85
:100780009A3168F49091630091FF02C090E001C03B
:1007900092E090938B008D5380938D0023C0109234
:1007A0008B0010928D008032A9F030F48930A1F0D6
:1007B0008A30C1F488E2F0CF8E3229F08F3529F0EB
:1007C0008D3281F405C087E3E7CF82E080938B0010
:1007D0008DE2E2CF8CE2E0CF8BE2DECF10928B0095
:1007E00010928D0081E0211180E08093620081E011
:1007F0000895FC0180818076803259F581818230B4
:1008000001F170F4813029F58BE890E09093AE000F
:100810008093AD0010928B0010928D0088E00895B7
:10082000893031F08A30A9F4838180938A0011C025
:1008300081E0268137812130310509F080E0819502
:1008400008958AE890E09093AE008093AD0081E037
:10085000089580E00895AF92BF92CF92DF92EF9219
:10086000FF920F931F93CF93DF93C12CA12CCFE066
:10087000D7E22CECE22E26EFF22EC11002C0D12CD2
:1008800002C090E8D92E07E010E080E4B82E80E0A6
:1008900090E08433994014F4DB0C01C0DB18D1BE26
:1008A000C8DD853329E0920724F09C0124533940A8
:1008B00003C09701281B390B2C173D0714F4AD2CEE
:1008C000E901B6940150110921F7C39482E0C812DE
:1008D000D4CFA1BEDF91CF911F910F91FF90EF90E8
:1008E000DF90CF90BF90AF90089582B78F738A3119
:1008F00010F48F590895843310F4895D08958E3370
:1009000010F4845008958E3311F48DE208958FE52C
:100910000895CF93DF9380916600C09167008111A5
:1009200017C081E08C0F80936700C430C8F110922B
:100930006700C1E0C093660047E150E062EF70E0FD
:1009400089E690E087D010926800C093890028C0A3
:10095000D1E0DC0FD0936700C8DFEC2FF0E0E7595F
:10096000FF4F8083DA30E0F0ED2FF0E0E759FF4FE2
:10097000108240E250E060E070E089E690E083D0D1
:1009800045E150E06DED70E089E690E063D01092B3
:10099000680081E0809389001092670010926600E1
:1009A000DF91CF910895FC018081909163008917B8
:1009B00019F080936300ADDF81E0089540E250E0DC
:1009C00060E070E089E690E04ED01092680081E02F
:1009D0008093890010928B0010928C0010928D00F1
:1009E00010928E0010928F00109290001092910041
:1009F000109292002EE088E190E00FB6F894A8954E
:100A000081BD0FBE21BDF1DCBB9A8AEFA895E9E359
:100A1000F0E23197F1F700C000008150B9F7BB98C0
:100A200083B7826083BF7894A895AFDB80919E00E6
:100A300084FFFACF809189008130B1F78091630003
:100A40008F3F91F367DE8093890068E08BE890E048
:100A500078DBEACFFB01DC0102C005900D9241502A
:100A60005040D8F70895DC01CB01FC01E199FECF9D
:100A700006C0FFBBEEBBE09A31960DB20D9241501D
:100A80005040B8F70895DC01CB0102C02D9105D08C
:100A900041505040D8F70895262FE199FECF1CBA57
:100AA0009FBB8EBB2DBB0FB6F894E29AE19A0FBEA6
:080AB00001960895F894FFCFB0
:040AB800FF5A01FFE1
:00000001FF
