:1000000085C09FC02AC29DC09CC09BC09AC099C099
:1000100098C097C096C095C094C093C092C0090282
:100020002200010100801909040000010301010000
:10003000092101010001223F000705810308000A90
:100040001201100100000008C016DB2700010102A8
:1000500003010A0330003000300031002203500059
:1000600061007300730077006F0072004700650045
:100070006E0065007200610074006F0072001C0366
:1000800053006500630031002000530065006300E9
:100090007500720069007400790004030904050109
:1000A0000906A10175019508050719E029E7150062
:1000B00025018102950175088103950575010508E3
:1000C000190129059102950175039103950675089B
:1000D000150025650507190029658100C02E2E2E03
:1000E0004E65772070617373776F726420736176E9
:1000F00065642E005374617274696E672067656E63
:1001000065726174696F6E2E2E2E000011241FBE61
:10011000CFE5D2E0DEBFCDBF10E0A0E6B0E0EEEC70
:10012000FAE002C005900D92A436B107D9F720E09D
:10013000A4E6B0E001C01D92AF3CB207E1F749D49C
:10014000C4C45ECFCF93C62F2091A40024FF07C064
:100150002091A50038E823272093A50003C02AE5B5
:100160002093A400DC01E6EAF0E09C2F9E0F8D9125
:100170008193892F8E1B1816D4F36C2F86EA90E09A
:1001800055D1CC5FC093A400CF910895CF93DF9356
:100190006091B500635067FDC6C08091B200CCE0AD
:1001A000D0E0C81BD109C754DF4F8091B1008D3218
:1001B00009F0A8C0683009F0B4C083EC80939900BE
:1001C0008AE580936100109265008881807619F03D
:1001D000CE0110D384C09A811092A200898181112E
:1001E00006C01092A30022EA30E082E074C085309D
:1001F00019F49093B6006CC0863009F053C08B811F
:10020000813041F480E490E09093B4008093B30097
:1002100082E144C0823019F48EE190E01AC083304C
:1002200041F5911108C08AE990E09093B400809361
:10023000B30084E033C0913041F48EE790E09093B6
:10024000B4008093B3008CE129C0923041F48CE576
:1002500090E09093B4008093B30082E21FC093308B
:10026000E1F482E590E09093B4008093B3008AE0DB
:1002700015C0813241F480E390E09093B400809304
:10028000B30089E00BC0823241F48EE990E0909394
:10029000B4008093B3008FE301C080E090E49093BA
:1002A00065001DC0883069F0893019F49093B8005A
:1002B0000FC08A3049F08B3059F48BE48093A5004D
:1002C00007C028EB30E002C022EA30E081E003C042
:1002D00022EA30E080E03093B4002093B3008F3FF7
:1002E00039F4988197FD8E8190E89093650007C05E
:1002F0009F81911104C09E81981708F4892F8093E3
:1003000060000FC08091650087FF0BC0CE0156D3FF
:100310008F3F21F48EE18093610003C08111109220
:1003200060001092B5008091610084FF46C080910A
:1003300060008F3F09F441C0C82F893008F0C8E041
:100340008C1B809360008091990098E889278093A6
:100350009900CC2331F12091B3003091B400809109
:10036000650086FF0BC0AAE9B0E0F9018C2F8A0F67
:1003700094919D9331968A13FBCF09C0D901EAE984
:10038000F0E08C2F8E0F9D9191938E13FCCF8FEF09
:100390008C0F90E00196820F931F9093B40080938E
:1003A000B3006C2F8AE990E041D0CC5FCC3019F0DB
:1003B0008FEF80936000C093610084E196B39871E1
:1003C00031F48150D9F71092B6001092B000C1E01C
:1003D0008111C0E0809164008C1729F0C11101C027
:1003E0003BD2C0936400DF91CF910895AC9A8BB754
:1003F00080628BBF8BE48093A5008AE58093A40084
:100400000895A82FB92F80E090E041E050EA609570
:1004100030E009C02D9182279795879510F08427A9
:100420009527305EC8F36F5FA8F30895EADF8D93D8
:100430009D930895A6E088279927AA9569F00197CA
:10044000E1F3B399FCCFB39BFECF81E09927A6B32C
:10045000019611F0A871D9F70895CF93CFB7CF9334
:10046000C395B39BE9F7B39B0BC0B39B09C0B39B88
:1004700007C0B39B05C0B39B03C0B39B01C0D5C0ED
:100480000F92DF93C091B200DD27C754DF4F012EDA
:10049000B39B03C0DF910F90E6CF2F930F931F9371
:1004A0004F932FEF4F6F06B303FB20F95F933F93FA
:1004B00050E03BE065C016B30126502953FDC895B6
:1004C00056B3012703FB25F92F7306B3B1F050276C
:1004D000102713FB26F906B22230F0F000C016B345
:1004E000012703FB27F90126502906B22430E8F53D
:1004F0004F77206816B30000F6CF50274F7D20625B
:1005000006B2102F000000C006B3002650291027A5
:1005100013FB26F906B2E2CF4F7B06B3206400C07E
:10052000DACF01265029187106B269F14E7F216099
:10053000012F16B328C0002650294D7F06B2226035
:10054000102F29C0012650294B7F06B22460012FAD
:100550002DC016B301265029477F2860000006B23F
:100560002EC04F7E06B3206130C0422706B34993A8
:1005700000265029102706B24FEF13FB20F9297FE0
:1005800016B379F2187159F10126502906B20127E4
:1005900003FB21F9237F06B371F200265029315065
:1005A000D0F006B2102713FB22F9277E16B351F2C2
:1005B00001265029012703FB06B223F92F7C49F2BB
:1005C000000006B3102713FB24F90026502906B2B9
:1005D0002F7939F270CF10E21ABF002719C03B50B3
:1005E0003195C31BD04010E21ABF0881033C09F1CA
:1005F0000B34F9F02091B0001981110F1213EDCFD7
:100600004A81441F093651F10D3211F0013E29F79C
:100610000093B7003F915F914F911F910F912F91E0
:10062000DF910F90CAB7C5FD1BCFCF91CFBFCF9140
:1006300018952091B700222369F31091B50011237A
:1006400079F534307AF13093B5002093B1001091F0
:10065000B2003BE0311B3093B20024C00091B500E2
:100660000130F4F40AE54F7049F43091610034FD33
:100670001AC000936100C9E9D0E019C03091A4000C
:1006800034FD11C00093A400C5EAD0E010C00527D6
:1006900010E000C021C0052710E0C89508BB14C0B9
:1006A0003AE501C032ED032EC0E0D0E032E017B3EE
:1006B0001861C39A08B317BB58E120E84FEF20FF39
:1006C000052708BB279517951C3F28F700004552C2
:1006D000B0F720FF0527279508BB17951C3FB8F6F4
:1006E00029913A9561F7077E1091B600110F08BB6A
:1006F000C250D04011F01093B00010E21ABF086051
:1007000017B3177E402F477E54E05A95F1F708BB88
:1007100017BB48BB7FCF80918F00882359F0909101
:100720006800963238F4E92FF0E0E759FF4F8081F6
:10073000811106C0109291001092930080E00895FC
:1007400020916200222309F44AC09F5F90936800C1
:1007500090ED980F9A3040F410929100803311F090
:1007600083511BC087E219C09FE9980F9A3138F472
:10077000909163009270909391008D550EC09FEB05
:10078000980F9A3168F49091630091FF02C090E055
:1007900001C092E0909391008D538093930023C009
:1007A00010929100109293008032A9F030F48930B9
:1007B000A1F08A30C1F488E2F0CF8E3229F08F3573
:1007C00029F08D3281F405C087E3E7CF82E0809382
:1007D00091008DE2E2CF8CE2E0CF8BE2DECF10928F
:1007E00091001092930081E0211180E080936200DB
:1007F00081E00895FC0180818076803259F5818105
:10080000823001F170F4813029F581E990E0909314
:10081000B4008093B300109291001092930088E08E
:100820000895893031F08A30A9F483818093900053
:1008300011C081E0268137812130310509F080E047
:100840008195089580E990E09093B4008093B3007F
:1008500081E0089580E00895AF92BF92CF92DF9239
:10086000EF92FF920F931F93CF93DF93C12CA12C94
:10087000CFE0D7E22CECE22E26EFF22EC11002C020
:10088000D12C02C090E8D92E07E010E080E4B82E09
:1008900080E090E08433994014F4DB0C01C0DB1855
:1008A000D1BEC8DD853329E0920724F09C01245392
:1008B000394003C09701281B390B2C173D0714F44E
:1008C000AD2CE901B6940150110921F7C39482E0DF
:1008D000C812D4CFA1BEDF91CF911F910F91FF908D
:1008E000EF90DF90CF90BF90AF90089582B78F7355
:1008F0008A3110F48F590895843310F4895D089576
:100900008E3310F4845008958E3311F48DE20895DF
:100910008FE50895CF93DF9380916600C0916700C3
:10092000811118C081E08C0F80936700C43008F4F7
:1009300042C010926700C1E0C093660047E150E0FA
:1009400064EF70E089E690E090D010926800C09368
:100950008F0031C0D1E0DC0FD0936700C7DFEC2FF0
:10096000F0E0E759FF4F8083D03128F1CE5FC0938C
:100970006700AD2FB0E0A759BF4F8AE08C93EC2FF2
:10098000F0E0E759FF4F108246E250E060E070E08F
:1009900089E690E083D047E150E06DED70E089E6B4
:1009A00090E063D01092680081E080938F001092F5
:1009B000670010926600DF91CF910895FC0180815D
:1009C00090916300891719F080936300A3DF81E0A1
:1009D000089546E250E060E070E089E690E04ED095
:1009E0001092680081E080938F0010929100109225
:1009F0009200109293001092940010929500109221
:100A0000960010929700109298002EE088E190E0F6
:100A10000FB6F894A89581BD0FBE21BDE7DCBB9A47
:100A200082E3A895E9E3F0E23197F1F700C0000016
:100A30008150B9F7BB9883B7826083BF7894A8953B
:100A4000A5DB8091A40084FFFACF80918F008130D4
:100A5000B1F7809163008F3F91F35DDE80938F004B
:100A600068E081E990E06EDBEACFFB01DC0102C0C7
:100A700005900D9241505040D8F70895DC01CB010C
:100A8000FC01E199FECF06C0FFBBEEBBE09A3196B8
:100A90000DB20D9241505040B8F70895DC01CB01E2
:100AA00002C02D9105D041505040D8F70895262F0F
:100AB000E199FECF1CBA9FBB8EBB2DBB0FB6F8943D
:0E0AC000E29AE19A0FBE01960895F894FFCFD6
:040ACE00FF5A01FFCB
:00000001FF
